:020000040800F2
:1000000080740020E501000849070008290700085E
:1000100045070008F5040008370F0008000000003D
:100020000000000000000000000000009F0B00081E
:10003000F904000800000000D1070008B10C000816
:10004000FF010008FF010008FF010008FF01000890
:10005000FF010008FF010008FF010008FF01000880
:10006000FF010008FF010008FF010008FF01000870
:10007000FF010008FF010008FF010008FF01000860
:10008000FF010008FF010008FF010008FF01000850
:10009000FF010008FF010008FF010008FF01000840
:1000A000FF010008FF010008FF010008FF01000830
:1000B000FF010008FF010008FF010008FF01000820
:1000C000FF010008FF010008FF010008FF01000810
:1000D000FF010008150D0008FF010008FF010008DE
:1000E000FF010008FF010008FF010008FF010008F0
:1000F000FF010008FF010008FF010008FF010008E0
:10010000FF010008FF010008FF010008FF010008CF
:10011000FF010008FF010008FF010008FF010008BF
:10012000FF010008FF010008FF010008FF010008AF
:1001300000F002F800F042F80AA090E8000C8244B7
:100140008344AAF10107DA4501D100F037F8AFF294
:10015000090EBAE80F0013F0010F18BFFB1A43F0A5
:10016000010318473C1600005C160000103A24BF3B
:1001700078C878C1FAD8520724BF30C830C144BF0C
:1001800004680C607047000000230024002500264E
:10019000103A28BF78C1FBD8520728BF30C148BFEA
:1001A0000B607047642900F07F80782900F0B880E8
:1001B000002070471FB51FBD10B510BD00F068F9D5
:1001C0001146FFF7F7FF01F091F800F086F903B44C
:1001D000FFF7F2FF03BC01F02FF8000080F308885E
:1001E000704700000948804709480047FEE7FEE7DE
:1001F000FEE7FEE7FEE7FEE7FEE7FEE7FEE7FEE7D7
:1002000004480549054A064B70470000B50C000834
:1002100031010008806E0020807400208070002072
:1002200080700020704700000FB4044910B503AA85
:10023000029800F0FFF810BC5DF814FB1C000020D1
:100240002DE9F0410E460446002020622046E16878
:10025000884730B3252805D0D4E901219047206A8A
:10026000401CF2E7E168204600278847050018D0C7
:10027000A5F14100192802D820354FF40067324615
:10028000294620462760FFF78DFF40B1012804D0A2
:10029000F61D26F007060836D8E7361DD6E72846AD
:1002A000DAE7206ABDE8F0812DE9F0410646002436
:1002B00010687529314616A510D0AFF300800028CC
:1002C00002DA404213A507E031688A0701D512A57A
:1002D00002E0490704D511A5012401E0AFF3008035
:1002E00000210A2206F1240709E0B0FBF2FCB0FB72
:1002F000F2F302FB1C00303078541846491C0028E9
:10030000F3D123462A463046BDE8F04100F038B824
:10031000000000002D0000002B0000002000000065
:1003200070B504460D4621461068AFF30080218861
:10033000090502D50F4A7A4402E00E4A7A440E3289
:10034000002104F1240305E000F00F060009965D8A
:100350005E54491C0028F7D120780023000704D5FB
:10036000702D02D009B1022311322046BDE8704041
:1003700000F006B83E1400007047704770477047A1
:100380002DE9F0470D4699469246044600F12408AF
:100390000168880604D5E06921F01001216000E0C1
:1003A0000120A84201DD471B00E00027A1697A195E
:1003B00002EB0900081AA0612078C00602D420468A
:1003C000AFF30080002608E0D4E901211AF8060006
:1003D0009047206A401C761C20624E45F4DB207852
:1003E000C0060AD52046AFF3008006E0D4E901211B
:1003F00030209047206A401C2062381EA7F1010778
:10040000F4DC07E0D4E9012118F805009047206AE0
:10041000401C2062281EA5F10105F3DC2046AFF345
:1004200000802078000602D50220BDE8F087012078
:10043000FBE70000074B70B50D467B4400F011F858
:100440000446284600F020F810B14FF0FF3070BD90
:10045000204670BD930E000001694A1C02610878B5
:10046000704700B58FB0CDE90131002105910549F4
:100470007944CDE9031011466846FFF7E1FE0FB05D
:1004800000BD0000E5FFFFFF007B00F0800070472B
:10049000754600F02BF8AE4605006946534620F03D
:1004A0000700854618B020B5FFF7AAFEBDE820403A
:1004B0004FF000064FF000074FF000084FF0000B20
:1004C00021F00701AC46ACE8C009ACE8C009ACE8D3
:1004D000C009ACE8C0098D46704710B50446AFF3BB
:1004E00000802046BDE81040FFF771BE004870470D
:1004F000206E002000BFFEE77047000030B50446C4
:1005000004254FF4302000F06FF80546042D17D174
:100510000C48006940F002000A490861084644613D
:10052000006940F0400008614FF4302000F05CF8B2
:1005300005460448006941F6FD710840014908611B
:10054000284630BD0020024004200B49C96801F054
:10055000010109B101200EE00749C96801F0040159
:1005600009B1022007E00449C96801F0100109B18E
:10057000032000E004207047002002400348006987
:1005800040F08000014908617047000000200240EF
:1005900070B504460D460426F00200F025F8064624
:1005A000042E11D10948006940F001000749086193
:1005B0002580F00200F018F806460448006941F66C
:1005C000FE71084001490861304670BD00200240BC
:1005D0000248034948600348486070472301674563
:1005E00000200240AB89EFCD00B502460423FFF79F
:1005F000ABFF034603E0FFF7A7FF0346521E012BA4
:1006000001D1002AF7D102B90523184600BD2DE912
:10061000F041024600250026002000230024002788
:1006200091F803C00CF00F0591F803C00CF0100C0A
:10063000BCF1000F03D091F802C04CEA050591F817
:1006400000C0BCF1000F31D0146800202BE04FF047
:10065000010C0CFA00F3B1F800C00CEA03069E424C
:1006600020D183004FF00F0C0CFA03F7BC4305FABE
:1006700003FC4CEA040491F803C0BCF1280F06D136
:100680004FF0010C0CFA00FCC2F814C00AE091F81B
:1006900003C0BCF1480F05D14FF0010C0CFA00FC6F
:1006A000C2F810C0401C0828D1D31460B1F800C0B3
:1006B000BCF1FF0F34DD546800202EE000F1080C7F
:1006C0004FF0010808FA0CF3B1F800C00CEA030679
:1006D0009E4221D183004FF00F0C0CFA03F7BC436C
:1006E00005FA03FC4CEA040491F803C0BCF1280F9E
:1006F00005D100F1080C08FA0CF8C2F8148091F842
:1007000003C0BCF1480F07D100F1080C4FF00108FD
:1007100008FA0CF8C2F81080401C0828CED35460A8
:10072000BDE8F0810161704700BFFEE710B500F041
:1007300001F810BD4AF6AA20014908607047000080
:100740000030004000BFFEE77047000070B5002198
:1007500000230F22C47804B3154C246804F4E06429
:10076000C4F5E064210AC1F10403CA40447804FAE4
:1007700003F184781440214309010E4C0678A155F9
:10078000047804F01F050124AC4005786D11AD001C
:1007900005F1E025C5F8004109E0047804F01F05E3
:1007A0000124AC40044D0678761145F8264070BD12
:1007B0000CED00E000E400E080E100E002490143CC
:1007C000024A1160704700000000FA050CED00E0DD
:1007D0007047000029B1064AD2690243044BDA612E
:1007E00004E0034AD2698243014BDA61704700009A
:1007F0000010024029B1064A92690243044B9A61F3
:1008000004E0034A92698243014B9A6170470000F9
:100810000010024030B500210022002400232D4D9D
:100820006D6805F00C0121B1042905D0082923D1F8
:1008300005E0294D056022E0274D05601FE0254DAC
:100840006D6805F47012234D6D6805F4803402253F
:1008500005EB92421CB9214D554305600BE01D4D3F
:100860006D6805F400351DB11C4D5543056002E06F
:10087000194D5543056002E0174D056000BF00BFEC
:10088000144D6D6805F0F0010909154D6B5C0568A4
:10089000DD4045600F4D6D6805F4E061090A104DBB
:1008A0006B5C4568DD4085600A4D6D6805F46051FC
:1008B000C90A0B4D6B5C4568DD40C560054D6D6830
:1008C00005F44041890B074D6B5CC568B5FBF3F53A
:1008D000056130BD0010024000127A0000093D00A1
:1008E000240000203400002000B587B0012108203A
:1008F000FFF780FF01218803FFF76CFF4FF4604092
:10090000ADF8180018208DF81B0003208DF81A0090
:1009100006A91848FFF77BFE4FF460411548FFF722
:1009200001FF0020ADF804004FF48270ADF806001E
:100930000020ADF808000220ADF80A000120ADF853
:100940000C004002ADF80E003820ADF81000002079
:10095000ADF812000720ADF8140001A9064800F018
:1009600065F80121044800F047F8FF2000F006F880
:1009700007B000BD000C01400038004070B50546CE
:10098000002405E0601CC4B2C82C01DD002070BD4D
:1009900002210E4800F03CF80028F3D029460B480D
:1009A00000F042F8002405E0601CC4B2C82C01DD50
:1009B0000020ECE70121054800F02AF80028F3D0D8
:1009C000024800F02EF8C0B2E1E700000038004015
:1009D00010B50446074800884FF6C771084005491E
:1009E000088008460088204308800121014800F063
:1009F00003F810BD0038004021B1028842F04002E7
:100A0000028004E002884FF6BF731A4002807047EC
:100A10000246002013890B400BB1012000E00020AA
:100A200070470146888970478181704710B5002260
:100A3000028802F441520B884C8823438C8823435C
:100A4000CC8823430C8923434C8923438C8923433B
:100A5000CC8923431A430280838B4FF2FF742340D7
:100A600083830B8A038210BD30B503460C461546BE
:100A7000002207E0184600F008F824F812009B1C3A
:100A8000501C82B2AA42F5DB30BD0146088870478F
:100A90002DE9F05F80468A461746B8F1006F02D311
:100AA0003348804501D3BDE8F09FFFF791FDA8F1E1
:100AB000006B4FEADB25CBF34909C9F58064A742F7
:100AC00000DC3C464DE04FF0006101EBC5204A14CC
:100AD0002849FFF7C9FF00260BE009EB060025496E
:100AE00031F810004FF6FF71884200D003E0701C0F
:100AF00086B2A642F1DB00BFA6421BDA4FF00061CE
:100B000001EBC520FFF7FAFC002608E03AF81600D2
:100B100006EB0901174A22F81100701C86B2A642A2
:100B2000F4DB4FF0006101EBC5204A14114900F0DD
:100B300023F804E022465146404600F01DF8A74243
:100B400000D10FE06D1C4FF000090AEB440AA044ED
:100B5000381B87B2B7F5806F02DD4FF4806400E088
:100B60003C46B0E700BFFFF709FD00BF9BE7000070
:100B7000000008081C1100202DE9F04105460E4632
:100B80001746002407E036F814102846FFF700FD4A
:100B9000AD1C601C84B2BC42F5DBBDE8F08170473F
:100BA00010B500F001F810BD0CB5002001900090C8
:100BB0003348006840F480303149086000BF304855
:100BC000006800F4003000900198401C01900098EB
:100BD00018B90198B0F5A06FF1D12948006800F468
:100BE000003010B10120009001E00020009000983A
:100BF000012843D12348006840F0100021490860D3
:100C00000846006820F0030008600846006840F0CD
:100C1000020008601A484068194948600846406860
:100C200048600846406840F4806048600846406874
:100C300020F47C1048600846406840F4E8104860A2
:100C40000846006840F08070086000BF0C480068EB
:100C500000F000700028F9D00948406820F0030037
:100C6000074948600846406840F00200486000BFFD
:100C70000348406800F00C000828F9D10CBD0000C2
:100C80000010024000200240042808D14FF0E0216B
:100C9000096941F004014FF0E022116107E04FF0D3
:100CA000E021096921F004014FF0E0221161704751
:100CB0007047000010B51348006840F0010011496A
:100CC000086008464068104908400E4948600846D8
:100CD00000680E4908400B4908600846006820F487
:100CE000802008600846406820F4FE0048604FF409
:100CF0001F008860FFF754FF4FF000600449086050
:100D000010BD0000001002400000FFF8FFFFF6FEDB
:100D100008ED00E010B540F225511D4800F04AF8FA
:100D200010B31B4800F002F9C4B21A48008800F45E
:100D30000040C8B91748008800F4804060B10A2C10
:100D400003D000201349088020E01248008840F4B6
:100D500000401049088019E00D2C06D10D4800888C
:100D600040F480400B49088010E00A480088C0F336
:100D70000D0009490C5407480088401C05490880AB
:100D800008460088C72801DD0020088010BD00004B
:100D900000380140200000205400002021B1828949
:100DA00042F40052828104E082894DF6FF731A40BA
:100DB0008281704770B50246002400230025002080
:100DC00040F66A16B14200D100BFC1F3421501F0EE
:100DD0001F03012606FA03F3012D02D19689334041
:100DE00006E0022D02D1168A334001E0968A334094
:100DF0000C12012606FA04F41688344013B10CB123
:100E0000012000E0002070BDF0B50346002400265C
:100E10000025002040F66A17B94200D100BF1846ED
:100E2000C1F3421401F01F06012707FA06F5012C51
:100E300001D10C3004E0022C01D1103000E014305C
:100E40001AB107682F43076002E00768AF430760E5
:100E5000F0BD00002DE9F04786B005460E4600249F
:100E6000A24600BFA1460027B08900B100BF2F46AF
:100E70002C8A4CF6FF700440F08804432C82AC8925
:100E80004EF6F3100440B088318908437189084355
:100E90000443AC81AC8A4FF6FF400440B089044360
:100EA000AC8201A8FFF7B6FC1F48874202D1DDF8EB
:100EB00010A001E0DDF80CA0A88900F4004040B1CA
:100EC0000AEBCA0000EB0A1031684900B0FBF1F8E8
:100ED00007E00AEBCA0000EB0A1031688900B0FB9A
:100EE000F1F86420B8FBF0F004012009642101FB53
:100EF0001089A88900F4004040B1322000EBC900FD
:100F0000B0FBF1F000F00700044308E0322000EBF2
:100F100009106421B0FBF1F000F00F0004432C81B4
:100F200006B0BDE8F087000000380140014688881F
:100F3000C0F30800704700BFFEE7000010B504468C
:100F4000214610A0FFF770F9240300F017F900F014
:100F5000AFF800200D4908602020FFF70FFDC4F313
:100F60000740FFF70BFDC4F30720FFF707FDE0B2D2
:100F7000FFF704FD01200649C1F8B00100F098F820
:100F800010BD000066653A25780D0A00B081214247
:100F90000080214208B501210820FFF72BFC4FF407
:100FA0008050ADF8000010208DF8030003208DF86C
:100FB000020069460A48FFF72AFB4FF480510848AF
:100FC000FFF7B0FB012007490860FFF78DFC002008
:100FD000FFF7FEFC00F032F80349088008BD00006E
:100FE000000C0140B0812142220000202DE9F04197
:100FF00006460C46174600200F4908600320FFF7FD
:10100000BDFCC4F30740FFF7B9FCC4F30720FFF7AA
:10101000B5FCE0B2FFF7B2FC002505E0FF20FFF7CA
:10102000ADFC7055681C85B2BD42F7DB012002495A
:101030000860BDE8F0810000B081214210B50024B5
:1010400000200E4908609020FFF798FC0020FFF771
:1010500095FC0020FFF792FC0020FFF78FFCFF209B
:10106000FFF78CFC44EA0024FF20FFF787FC0443D1
:1010700001200349C1F8B001204610BDB0812142D2
:101080000080214210B50024002007490860052097
:10109000FFF774FCFF20FFF771FC044601200349B1
:1010A000C1F8B001204610BDB0812142008021422C
:1010B00010B500BFFFF7E6FF00F001000028F9D1EE
:1010C00010BD00002DE9F05F81460F461646DFF89F
:1010D000A8B04FEA1738C7F30B0ACAF58054A642E6
:1010E00000DC344644E04FEA08314FF48052584661
:1010F000FFF77CFF002508E00AEB05001BF8000065
:10110000FF2800D003E0681C85B2A542F4DB00BFD5
:10111000A54216DA4046FFF711FF002507E019F84F
:10112000050005EB0A010BF80100681C85B2A54219
:10113000F5DB4FEA08314FF48052584600F02EF8A4
:1011400004E022463946484600F028F8A64200D17D
:101150000FE008F101084FF0000AA1442744301BBA
:1011600086B2B6F5805F02DD4FF4805400E034466D
:10117000B9E700BFBDE8F09F1C01002010B50020BA
:10118000044908600620FFF7F9FB01200249C1F875
:10119000B00110BDB0812142008021422DE9F04113
:1011A00007460E461446F0B2C0F58075AC4200DC2E
:1011B000254612E02A463146384600F013F8AC4284
:1011C00000D10BE02F442E44601B84B2B4F5807F25
:1011D00002DD4FF4807500E02546EBE700BFBDE877
:1011E000F08100002DE9F04106460C461746FFF756
:1011F000C5FF00200F4908600220FFF7BFFBC4F3C2
:101200000740FFF7BBFBC4F30720FFF7B7FBE0B2D3
:10121000FFF7B4FB002504E0705DFFF7AFFB681C2F
:1012200085B2BD42F8DB012002490860FFF740FFAC
:10123000BDE8F081B0812142014600BF7047000047
:1012400010B56FF00400FFF71FFD0A4800680A4957
:10125000B0FBF1F0094908700846007800EB400146
:10126000C1EBC0104FF6FF7101EAC00004490880CD
:1012700010BD00000400002000127A0018000020B9
:101280001A0000200146114A12884A434FF0E02319
:101290005A6100229A611A46126942F001021A61EB
:1012A00000BF4FF0E022106900F001021AB100F413
:1012B0008032002AF5D04FF0E022126922F00102BC
:1012C0004FF0E0231A6100229A6170471A00002053
:1012D00000BF054A128802F04002002AF9D0C2B2CB
:1012E000014B1B1D1A807047003801401FB50020BC
:1012F00003906148029041F204000190FFF7A0FFC3
:101300004FF4A060FFF75AFA4FF4E13000F0D8F93B
:10131000FFF740FE002000F00DF90A20FFF7B2FFB2
:1013200056A0FEF781FFA5E0FFF700FA40F6FC01AA
:10133000002000F0A7F9834640F6FC01002000F0F1
:10134000A1F90446042291022046FFF74FFE60787F
:101350000104A07801EB0020E17845182078F628F8
:1013600064D149A0FEF760FFC5F30A0028B101204F
:1013700000EBD52000F0FF0A01E0C5F3C72A514673
:1013800045A0FEF751FF002646E0AAF10100B04259
:1013900006D14FF4006000FB16501FFA80F901E0FF
:1013A0004FF400694A4620460199FFF71FFE019855
:1013B00048440190002720E0781C205C0002009047
:1013C000E15D0098084480B2009041464A1C1FFA33
:1013D00082F800982BF81100B8F5806F0BD14FF010
:1013E00000084FF4806259460298FFF751FB0298BB
:1013F00000F500600290B81C87B24F45DCDBB8F105
:10140000000F04D0424659460298FFF741FB0A20DC
:10141000FFF738FF701C86B25645B6DB04229102F6
:1014200003A8FFF74FFE1FA0FEF7FEFE594600205F
:1014300000F016F92146002000F012F91DA0FEF779
:10144000F3FE0D48406800F07F40B0F1006F11D10D
:10145000094800681A490840B0F1005F0AD10648FF
:1014600040681849086004490868FEF7B7FE154847
:101470000068804758E7000000900008496E6974D2
:10148000206F6B2100000000BFAACABCB8FCD0C20C
:10149000B9CCBCFE0D0A00007061636BA3BA256471
:1014A0000D0A0000B9CCBCFEB8FCD0C2CDEAB3C96D
:1014B000210D0A00D3D0B9CCBCFE0D0A00000000FB
:1014C0000000FE2F000000202DE9F04104460E46EA
:1014D0001548005D38B91448183801682046884717
:1014E0000120BDE8F081114850F82400B04219D91C
:1014F0000F4850F82400B6FBF0F10B48083850F8BC
:10150000240030F81120002508E0002306480838A0
:1015100050F824004F1920F817306D1C9542F4DB69
:101520000020DEE70220DCE75000002070170008F2
:101530006817000810B504460C4951F824104A00F9
:101540000B4951F82400002100F0B0F8094951F886
:1015500024200749083951F82400002100F0A6F89A
:10156000012103480830015510BD00006017000834
:1015700048000020701700082DE9F04704460F4688
:101580000025A9462348005D20B922481838016883
:10159000204688471FB94FF0FF30BDE8F0871E484E
:1015A00050F82400B7FBF0F61B4850F82400B7FBB6
:1015B000F0F100FB117000B1761C184850F82400BF
:1015C000451E22E01348083850F8240030F8150072
:1015D00010B909F1010901E04FF00009B14513D13B
:1015E0004FF0000809E00B48083850F8240005EBDC
:1015F000080220F8126008F10108B045F3D306484C
:1016000050F824006843C8E76D1E002DDADA4FF069
:10161000FF30C2E75000002068170008601700087C
:1016200010B501460023002207E00B4850F82100C6
:1016300030F8120000B15B1C521C084850F8210021
:101640009042F2D864205843044C54F82140B0FB37
:10165000F4F0C0B210BD0000480000206017000880
:1016600070B505460C4604B970BD054850F8250014
:10167000261A31462846FFF727FF00BFF4E700008F
:101680004000002070B504460E4631462046FFF764
:1016900073FF0546681C08B9002070BD024850F869
:1016A00024002844F9E700004000002030B503463C
:1016B00001E003F8011B141EA2F10102F9D130BDB3
:1016C00010B586B00446012144F20400FFF792F8F9
:1016D0004FF40070ADF8140003208DF816001820A8
:1016E0008DF8170005A91C48FEF791FF4FF48060A4
:1016F000ADF8140004208DF8170005A91648FEF770
:1017000086FF25208DF8000003208DF801008DF85C
:10171000020001208DF803006846FFF717F80194D6
:101720000020ADF80800ADF80A00ADF80C00ADF8E7
:1017300010000C20ADF80E0001A90848FFF78AFB45
:10174000012240F225510548FFF75EFB01210348C5
:10175000FFF724FB06B010BD00080140003801402F
:1017600080020000010000002000000020000000B6
:10177000005000002000000030313233343536375D
:1017800038394142434445464030580030313233C5
:1017900034353637383961626364656640307800C5
:1017A000C017000800000020540000006C01000871
:1017B00014180008540000202C7400008801000850
:1017C0000000000000A24A04000000000000000029
:1017D00001020304060708090000000000000000E1
:1017E000000017EF000000000102030401020304DF
:1017F0000607080902040608351500082116000826
:1018000020190020000000682069002020000068E6
:0418100000000000D4
:0400000508000131BD
:00000001FF
